{
  "_format": "hh-sol-artifact-1",
  "contractName": "NFTCollection",
  "sourceName": "contracts/NFTCollection.sol",
  "abi": [
    {
      "inputs": [
        {
          "internalType": "address",
          "name": "marketplaceAddress",
          "type": "address"
        }
      ],
      "stateMutability": "nonpayable",
      "type": "constructor"
    },
    {
      "inputs": [
        {
          "internalType": "address",
          "name": "sender",
          "type": "address"
        },
        {
          "internalType": "uint256",
          "name": "tokenId",
          "type": "uint256"
        },
        {
          "internalType": "address",
          "name": "owner",
          "type": "address"
        }
      ],
      "name": "ERC721IncorrectOwner",
      "type": "error"
    },
    {
      "inputs": [
        {
          "internalType": "address",
          "name": "operator",
          "type": "address"
        },
        {
          "internalType": "uint256",
          "name": "tokenId",
          "type": "uint256"
        }
      ],
      "name": "ERC721InsufficientApproval",
      "type": "error"
    },
    {
      "inputs": [
        {
          "internalType": "address",
          "name": "approver",
          "type": "address"
        }
      ],
      "name": "ERC721InvalidApprover",
      "type": "error"
    },
    {
      "inputs": [
        {
          "internalType": "address",
          "name": "operator",
          "type": "address"
        }
      ],
      "name": "ERC721InvalidOperator",
      "type": "error"
    },
    {
      "inputs": [
        {
          "internalType": "address",
          "name": "owner",
          "type": "address"
        }
      ],
      "name": "ERC721InvalidOwner",
      "type": "error"
    },
    {
      "inputs": [
        {
          "internalType": "address",
          "name": "receiver",
          "type": "address"
        }
      ],
      "name": "ERC721InvalidReceiver",
      "type": "error"
    },
    {
      "inputs": [
        {
          "internalType": "address",
          "name": "sender",
          "type": "address"
        }
      ],
      "name": "ERC721InvalidSender",
      "type": "error"
    },
    {
      "inputs": [
        {
          "internalType": "uint256",
          "name": "tokenId",
          "type": "uint256"
        }
      ],
      "name": "ERC721NonexistentToken",
      "type": "error"
    },
    {
      "anonymous": false,
      "inputs": [
        {
          "indexed": true,
          "internalType": "address",
          "name": "owner",
          "type": "address"
        },
        {
          "indexed": true,
          "internalType": "address",
          "name": "approved",
          "type": "address"
        },
        {
          "indexed": true,
          "internalType": "uint256",
          "name": "tokenId",
          "type": "uint256"
        }
      ],
      "name": "Approval",
      "type": "event"
    },
    {
      "anonymous": false,
      "inputs": [
        {
          "indexed": true,
          "internalType": "address",
          "name": "owner",
          "type": "address"
        },
        {
          "indexed": true,
          "internalType": "address",
          "name": "operator",
          "type": "address"
        },
        {
          "indexed": false,
          "internalType": "bool",
          "name": "approved",
          "type": "bool"
        }
      ],
      "name": "ApprovalForAll",
      "type": "event"
    },
    {
      "anonymous": false,
      "inputs": [
        {
          "indexed": false,
          "internalType": "uint256",
          "name": "_fromTokenId",
          "type": "uint256"
        },
        {
          "indexed": false,
          "internalType": "uint256",
          "name": "_toTokenId",
          "type": "uint256"
        }
      ],
      "name": "BatchMetadataUpdate",
      "type": "event"
    },
    {
      "anonymous": false,
      "inputs": [
        {
          "indexed": false,
          "internalType": "uint256",
          "name": "_tokenId",
          "type": "uint256"
        }
      ],
      "name": "MetadataUpdate",
      "type": "event"
    },
    {
      "anonymous": false,
      "inputs": [
        {
          "indexed": true,
          "internalType": "address",
          "name": "from",
          "type": "address"
        },
        {
          "indexed": true,
          "internalType": "address",
          "name": "to",
          "type": "address"
        },
        {
          "indexed": true,
          "internalType": "uint256",
          "name": "tokenId",
          "type": "uint256"
        }
      ],
      "name": "Transfer",
      "type": "event"
    },
    {
      "inputs": [
        {
          "internalType": "address",
          "name": "to",
          "type": "address"
        },
        {
          "internalType": "uint256",
          "name": "tokenId",
          "type": "uint256"
        }
      ],
      "name": "approve",
      "outputs": [],
      "stateMutability": "nonpayable",
      "type": "function"
    },
    {
      "inputs": [
        {
          "internalType": "address",
          "name": "owner",
          "type": "address"
        }
      ],
      "name": "balanceOf",
      "outputs": [
        {
          "internalType": "uint256",
          "name": "",
          "type": "uint256"
        }
      ],
      "stateMutability": "view",
      "type": "function"
    },
    {
      "inputs": [
        {
          "internalType": "uint256",
          "name": "tokenId",
          "type": "uint256"
        }
      ],
      "name": "getApproved",
      "outputs": [
        {
          "internalType": "address",
          "name": "",
          "type": "address"
        }
      ],
      "stateMutability": "view",
      "type": "function"
    },
    {
      "inputs": [
        {
          "internalType": "address",
          "name": "owner",
          "type": "address"
        },
        {
          "internalType": "address",
          "name": "operator",
          "type": "address"
        }
      ],
      "name": "isApprovedForAll",
      "outputs": [
        {
          "internalType": "bool",
          "name": "",
          "type": "bool"
        }
      ],
      "stateMutability": "view",
      "type": "function"
    },
    {
      "inputs": [
        {
          "internalType": "string",
          "name": "uri",
          "type": "string"
        }
      ],
      "name": "mint",
      "outputs": [
        {
          "internalType": "uint256",
          "name": "",
          "type": "uint256"
        }
      ],
      "stateMutability": "nonpayable",
      "type": "function"
    },
    {
      "inputs": [],
      "name": "name",
      "outputs": [
        {
          "internalType": "string",
          "name": "",
          "type": "string"
        }
      ],
      "stateMutability": "view",
      "type": "function"
    },
    {
      "inputs": [
        {
          "internalType": "uint256",
          "name": "tokenId",
          "type": "uint256"
        }
      ],
      "name": "ownerOf",
      "outputs": [
        {
          "internalType": "address",
          "name": "",
          "type": "address"
        }
      ],
      "stateMutability": "view",
      "type": "function"
    },
    {
      "inputs": [
        {
          "internalType": "address",
          "name": "from",
          "type": "address"
        },
        {
          "internalType": "address",
          "name": "to",
          "type": "address"
        },
        {
          "internalType": "uint256",
          "name": "tokenId",
          "type": "uint256"
        }
      ],
      "name": "safeTransferFrom",
      "outputs": [],
      "stateMutability": "nonpayable",
      "type": "function"
    },
    {
      "inputs": [
        {
          "internalType": "address",
          "name": "from",
          "type": "address"
        },
        {
          "internalType": "address",
          "name": "to",
          "type": "address"
        },
        {
          "internalType": "uint256",
          "name": "tokenId",
          "type": "uint256"
        },
        {
          "internalType": "bytes",
          "name": "data",
          "type": "bytes"
        }
      ],
      "name": "safeTransferFrom",
      "outputs": [],
      "stateMutability": "nonpayable",
      "type": "function"
    },
    {
      "inputs": [
        {
          "internalType": "address",
          "name": "operator",
          "type": "address"
        },
        {
          "internalType": "bool",
          "name": "approved",
          "type": "bool"
        }
      ],
      "name": "setApprovalForAll",
      "outputs": [],
      "stateMutability": "nonpayable",
      "type": "function"
    },
    {
      "inputs": [
        {
          "internalType": "bytes4",
          "name": "interfaceId",
          "type": "bytes4"
        }
      ],
      "name": "supportsInterface",
      "outputs": [
        {
          "internalType": "bool",
          "name": "",
          "type": "bool"
        }
      ],
      "stateMutability": "view",
      "type": "function"
    },
    {
      "inputs": [],
      "name": "symbol",
      "outputs": [
        {
          "internalType": "string",
          "name": "",
          "type": "string"
        }
      ],
      "stateMutability": "view",
      "type": "function"
    },
    {
      "inputs": [
        {
          "internalType": "uint256",
          "name": "tokenId",
          "type": "uint256"
        }
      ],
      "name": "tokenURI",
      "outputs": [
        {
          "internalType": "string",
          "name": "",
          "type": "string"
        }
      ],
      "stateMutability": "view",
      "type": "function"
    },
    {
      "inputs": [
        {
          "internalType": "address",
          "name": "from",
          "type": "address"
        },
        {
          "internalType": "address",
          "name": "to",
          "type": "address"
        },
        {
          "internalType": "uint256",
          "name": "tokenId",
          "type": "uint256"
        }
      ],
      "name": "transferFrom",
      "outputs": [],
      "stateMutability": "nonpayable",
      "type": "function"
    }
  ],
  "bytecode": "0x608060405234801561001057600080fd5b50604051612a6f380380612a6f833981810160405281019061003291906101ab565b6040518060400160405280600581526020017f4f70656e430000000000000000000000000000000000000000000000000000008152506040518060400160405280600381526020017f4f5043000000000000000000000000000000000000000000000000000000000081525081600090816100ad9190610428565b5080600190816100bd9190610428565b50505080600860006101000a81548173ffffffffffffffffffffffffffffffffffffffff021916908373ffffffffffffffffffffffffffffffffffffffff16021790555033600960006101000a81548173ffffffffffffffffffffffffffffffffffffffff021916908373ffffffffffffffffffffffffffffffffffffffff160217905550506104fa565b600080fd5b600073ffffffffffffffffffffffffffffffffffffffff82169050919050565b60006101788261014d565b9050919050565b6101888161016d565b811461019357600080fd5b50565b6000815190506101a58161017f565b92915050565b6000602082840312156101c1576101c0610148565b5b60006101cf84828501610196565b91505092915050565b600081519050919050565b7f4e487b7100000000000000000000000000000000000000000000000000000000600052604160045260246000fd5b7f4e487b7100000000000000000000000000000000000000000000000000000000600052602260045260246000fd5b6000600282049050600182168061025957607f821691505b60208210810361026c5761026b610212565b5b50919050565b60008190508160005260206000209050919050565b60006020601f8301049050919050565b600082821b905092915050565b6000600883026102d47fffffffffffffffffffffffffffffffffffffffffffffffffffffffffffffffff82610297565b6102de8683610297565b95508019841693508086168417925050509392505050565b6000819050919050565b6000819050919050565b600061032561032061031b846102f6565b610300565b6102f6565b9050919050565b6000819050919050565b61033f8361030a565b61035361034b8261032c565b8484546102a4565b825550505050565b600090565b61036861035b565b610373818484610336565b505050565b5b818110156103975761038c600082610360565b600181019050610379565b5050565b601f8211156103dc576103ad81610272565b6103b684610287565b810160208510156103c5578190505b6103d96103d185610287565b830182610378565b50505b505050565b600082821c905092915050565b60006103ff600019846008026103e1565b1980831691505092915050565b600061041883836103ee565b9150826002028217905092915050565b610431826101d8565b67ffffffffffffffff81111561044a576104496101e3565b5b6104548254610241565b61045f82828561039b565b600060209050601f8311600181146104925760008415610480578287015190505b61048a858261040c565b8655506104f2565b601f1984166104a086610272565b60005b828110156104c8578489015182556001820191506020850194506020810190506104a3565b868310156104e557848901516104e1601f8916826103ee565b8355505b6001600288020188555050505b505050505050565b612566806105096000396000f3fe608060405234801561001057600080fd5b50600436106100ea5760003560e01c806370a082311161008c578063b88d4fde11610066578063b88d4fde1461025b578063c87b56dd14610277578063d85d3d27146102a7578063e985e9c5146102d7576100ea565b806370a08231146101f157806395d89b4114610221578063a22cb4651461023f576100ea565b8063095ea7b3116100c8578063095ea7b31461016d57806323b872dd1461018957806342842e0e146101a55780636352211e146101c1576100ea565b806301ffc9a7146100ef57806306fdde031461011f578063081812fc1461013d575b600080fd5b6101096004803603810190610104919061193f565b610307565b6040516101169190611987565b60405180910390f35b610127610368565b6040516101349190611a32565b60405180910390f35b61015760048036038101906101529190611a8a565b6103fa565b6040516101649190611af8565b60405180910390f35b61018760048036038101906101829190611b3f565b610416565b005b6101a3600480360381019061019e9190611b7f565b61042c565b005b6101bf60048036038101906101ba9190611b7f565b61052e565b005b6101db60048036038101906101d69190611a8a565b61054e565b6040516101e89190611af8565b60405180910390f35b61020b60048036038101906102069190611bd2565b610560565b6040516102189190611c0e565b60405180910390f35b61022961061a565b6040516102369190611a32565b60405180910390f35b61025960048036038101906102549190611c55565b6106ac565b005b61027560048036038101906102709190611dca565b6107ba565b005b610291600480360381019061028c9190611a8a565b6107df565b60405161029e9190611a32565b60405180910390f35b6102c160048036038101906102bc9190611eee565b6108f2565b6040516102ce9190611c0e565b60405180910390f35b6102f160048036038101906102ec9190611f37565b61095d565b6040516102fe9190611987565b60405180910390f35b6000634906490660e01b7bffffffffffffffffffffffffffffffffffffffffffffffffffffffff1916827bffffffffffffffffffffffffffffffffffffffffffffffffffffffff191614806103615750610360826109f1565b5b9050919050565b60606000805461037790611fa6565b80601f01602080910402602001604051908101604052809291908181526020018280546103a390611fa6565b80156103f05780601f106103c5576101008083540402835291602001916103f0565b820191906000526020600020905b8154815290600101906020018083116103d357829003601f168201915b5050505050905090565b600061040582610ad3565b5061040f82610b5b565b9050919050565b6104288282610423610b98565b610ba0565b5050565b600073ffffffffffffffffffffffffffffffffffffffff168273ffffffffffffffffffffffffffffffffffffffff160361049e5760006040517f64a0ae920000000000000000000000000000000000000000000000000000000081526004016104959190611af8565b60405180910390fd5b60006104b283836104ad610b98565b610bb2565b90508373ffffffffffffffffffffffffffffffffffffffff168173ffffffffffffffffffffffffffffffffffffffff1614610528578382826040517f64283d7b00000000000000000000000000000000000000000000000000000000815260040161051f93929190611fd7565b60405180910390fd5b50505050565b610549838383604051806020016040528060008152506107ba565b505050565b600061055982610ad3565b9050919050565b60008073ffffffffffffffffffffffffffffffffffffffff168273ffffffffffffffffffffffffffffffffffffffff16036105d35760006040517f89c62b640000000000000000000000000000000000000000000000000000000081526004016105ca9190611af8565b60405180910390fd5b600360008373ffffffffffffffffffffffffffffffffffffffff1673ffffffffffffffffffffffffffffffffffffffff168152602001908152602001600020549050919050565b60606001805461062990611fa6565b80601f016020809104026020016040519081016040528092919081815260200182805461065590611fa6565b80156106a25780601f10610677576101008083540402835291602001916106a2565b820191906000526020600020905b81548152906001019060200180831161068557829003601f168201915b5050505050905090565b600960009054906101000a900473ffffffffffffffffffffffffffffffffffffffff1673ffffffffffffffffffffffffffffffffffffffff166106ed610b98565b73ffffffffffffffffffffffffffffffffffffffff16148061075d5750600860009054906101000a900473ffffffffffffffffffffffffffffffffffffffff1673ffffffffffffffffffffffffffffffffffffffff168273ffffffffffffffffffffffffffffffffffffffff1614155b806107655750805b6107a4576040517f08c379a000000000000000000000000000000000000000000000000000000000815260040161079b90612080565b60405180910390fd5b6107b66107af610b98565b8383610dcc565b5050565b6107c584848461042c565b6107d96107d0610b98565b85858585610f3b565b50505050565b60606107ea82610ad3565b50600060066000848152602001908152602001600020805461080b90611fa6565b80601f016020809104026020016040519081016040528092919081815260200182805461083790611fa6565b80156108845780601f1061085957610100808354040283529160200191610884565b820191906000526020600020905b81548152906001019060200180831161086757829003601f168201915b5050505050905060006108956110ec565b905060008151036108aa5781925050506108ed565b6000825111156108df5780826040516020016108c79291906120dc565b604051602081830303815290604052925050506108ed565b6108e884611103565b925050505b919050565b6000600760008154809291906109079061212f565b91905055506000600754905061091d338261116c565b6109278184611265565b610954600860009054906101000a900473ffffffffffffffffffffffffffffffffffffffff1660016106ac565b80915050919050565b6000600560008473ffffffffffffffffffffffffffffffffffffffff1673ffffffffffffffffffffffffffffffffffffffff16815260200190815260200160002060008373ffffffffffffffffffffffffffffffffffffffff1673ffffffffffffffffffffffffffffffffffffffff16815260200190815260200160002060009054906101000a900460ff16905092915050565b60007f80ac58cd000000000000000000000000000000000000000000000000000000007bffffffffffffffffffffffffffffffffffffffffffffffffffffffff1916827bffffffffffffffffffffffffffffffffffffffffffffffffffffffff19161480610abc57507f5b5e139f000000000000000000000000000000000000000000000000000000007bffffffffffffffffffffffffffffffffffffffffffffffffffffffff1916827bffffffffffffffffffffffffffffffffffffffffffffffffffffffff1916145b80610acc5750610acb826112c1565b5b9050919050565b600080610adf8361132b565b9050600073ffffffffffffffffffffffffffffffffffffffff168173ffffffffffffffffffffffffffffffffffffffff1603610b5257826040517f7e273289000000000000000000000000000000000000000000000000000000008152600401610b499190611c0e565b60405180910390fd5b80915050919050565b60006004600083815260200190815260200160002060009054906101000a900473ffffffffffffffffffffffffffffffffffffffff169050919050565b600033905090565b610bad8383836001611368565b505050565b600080610bbe8461132b565b9050600073ffffffffffffffffffffffffffffffffffffffff168373ffffffffffffffffffffffffffffffffffffffff1614610c0057610bff81848661152d565b5b600073ffffffffffffffffffffffffffffffffffffffff168173ffffffffffffffffffffffffffffffffffffffff1614610c9157610c42600085600080611368565b6001600360008373ffffffffffffffffffffffffffffffffffffffff1673ffffffffffffffffffffffffffffffffffffffff168152602001908152602001600020600082825403925050819055505b600073ffffffffffffffffffffffffffffffffffffffff168573ffffffffffffffffffffffffffffffffffffffff1614610d14576001600360008773ffffffffffffffffffffffffffffffffffffffff1673ffffffffffffffffffffffffffffffffffffffff168152602001908152602001600020600082825401925050819055505b846002600086815260200190815260200160002060006101000a81548173ffffffffffffffffffffffffffffffffffffffff021916908373ffffffffffffffffffffffffffffffffffffffff160217905550838573ffffffffffffffffffffffffffffffffffffffff168273ffffffffffffffffffffffffffffffffffffffff167fddf252ad1be2c89b69c2b068fc378daa952ba7f163c4a11628f55a4df523b3ef60405160405180910390a4809150509392505050565b600073ffffffffffffffffffffffffffffffffffffffff168273ffffffffffffffffffffffffffffffffffffffff1603610e3d57816040517f5b08ba18000000000000000000000000000000000000000000000000000000008152600401610e349190611af8565b60405180910390fd5b80600560008573ffffffffffffffffffffffffffffffffffffffff1673ffffffffffffffffffffffffffffffffffffffff16815260200190815260200160002060008473ffffffffffffffffffffffffffffffffffffffff1673ffffffffffffffffffffffffffffffffffffffff16815260200190815260200160002060006101000a81548160ff0219169083151502179055508173ffffffffffffffffffffffffffffffffffffffff168373ffffffffffffffffffffffffffffffffffffffff167f17307eab39ab6107e8899845ad3d59bd9653f200f220920489ca2b5937696c3183604051610f2e9190611987565b60405180910390a3505050565b60008373ffffffffffffffffffffffffffffffffffffffff163b11156110e5578273ffffffffffffffffffffffffffffffffffffffff1663150b7a02868685856040518563ffffffff1660e01b8152600401610f9a94939291906121cc565b6020604051808303816000875af1925050508015610fd657506040513d601f19601f82011682018060405250810190610fd3919061222d565b60015b61105a573d8060008114611006576040519150601f19603f3d011682016040523d82523d6000602084013e61100b565b606091505b50600081510361105257836040517f64a0ae920000000000000000000000000000000000000000000000000000000081526004016110499190611af8565b60405180910390fd5b805181602001fd5b63150b7a0260e01b7bffffffffffffffffffffffffffffffffffffffffffffffffffffffff1916817bffffffffffffffffffffffffffffffffffffffffffffffffffffffff1916146110e357836040517f64a0ae920000000000000000000000000000000000000000000000000000000081526004016110da9190611af8565b60405180910390fd5b505b5050505050565b606060405180602001604052806000815250905090565b606061110e82610ad3565b5060006111196110ec565b905060008151116111395760405180602001604052806000815250611164565b80611143846115f1565b6040516020016111549291906120dc565b6040516020818303038152906040525b915050919050565b600073ffffffffffffffffffffffffffffffffffffffff168273ffffffffffffffffffffffffffffffffffffffff16036111de5760006040517f64a0ae920000000000000000000000000000000000000000000000000000000081526004016111d59190611af8565b60405180910390fd5b60006111ec83836000610bb2565b9050600073ffffffffffffffffffffffffffffffffffffffff168173ffffffffffffffffffffffffffffffffffffffff16146112605760006040517f73c6ac6e0000000000000000000000000000000000000000000000000000000081526004016112579190611af8565b60405180910390fd5b505050565b806006600084815260200190815260200160002090816112859190612406565b507ff8e1a15aba9398e019f0b49df1a4fde98ee17ae345cb5f6b5e2c27f5033e8ce7826040516112b59190611c0e565b60405180910390a15050565b60007f01ffc9a7000000000000000000000000000000000000000000000000000000007bffffffffffffffffffffffffffffffffffffffffffffffffffffffff1916827bffffffffffffffffffffffffffffffffffffffffffffffffffffffff1916149050919050565b60006002600083815260200190815260200160002060009054906101000a900473ffffffffffffffffffffffffffffffffffffffff169050919050565b80806113a15750600073ffffffffffffffffffffffffffffffffffffffff168273ffffffffffffffffffffffffffffffffffffffff1614155b156114d55760006113b184610ad3565b9050600073ffffffffffffffffffffffffffffffffffffffff168373ffffffffffffffffffffffffffffffffffffffff161415801561141c57508273ffffffffffffffffffffffffffffffffffffffff168173ffffffffffffffffffffffffffffffffffffffff1614155b801561142f575061142d818461095d565b155b1561147157826040517fa9fbf51f0000000000000000000000000000000000000000000000000000000081526004016114689190611af8565b60405180910390fd5b81156114d357838573ffffffffffffffffffffffffffffffffffffffff168273ffffffffffffffffffffffffffffffffffffffff167f8c5be1e5ebec7d5bd14f71427d1e84f3dd0314c0f7b2291e5b200ac8c7c3b92560405160405180910390a45b505b836004600085815260200190815260200160002060006101000a81548173ffffffffffffffffffffffffffffffffffffffff021916908373ffffffffffffffffffffffffffffffffffffffff16021790555050505050565b6115388383836116bf565b6115ec57600073ffffffffffffffffffffffffffffffffffffffff168373ffffffffffffffffffffffffffffffffffffffff16036115ad57806040517f7e2732890000000000000000000000000000000000000000000000000000000081526004016115a49190611c0e565b60405180910390fd5b81816040517f177e802f0000000000000000000000000000000000000000000000000000000081526004016115e39291906124d8565b60405180910390fd5b505050565b60606000600161160084611780565b01905060008167ffffffffffffffff81111561161f5761161e611c9f565b5b6040519080825280601f01601f1916602001820160405280156116515781602001600182028036833780820191505090505b509050600082602001820190505b6001156116b4578080600190039150507f3031323334353637383961626364656600000000000000000000000000000000600a86061a8153600a85816116a8576116a7612501565b5b0494506000850361165f575b819350505050919050565b60008073ffffffffffffffffffffffffffffffffffffffff168373ffffffffffffffffffffffffffffffffffffffff161415801561177757508273ffffffffffffffffffffffffffffffffffffffff168473ffffffffffffffffffffffffffffffffffffffff1614806117385750611737848461095d565b5b8061177657508273ffffffffffffffffffffffffffffffffffffffff1661175e83610b5b565b73ffffffffffffffffffffffffffffffffffffffff16145b5b90509392505050565b600080600090507a184f03e93ff9f4daa797ed6e38ed64bf6a1f01000000000000000083106117de577a184f03e93ff9f4daa797ed6e38ed64bf6a1f01000000000000000083816117d4576117d3612501565b5b0492506040810190505b6d04ee2d6d415b85acef8100000000831061181b576d04ee2d6d415b85acef8100000000838161181157611810612501565b5b0492506020810190505b662386f26fc10000831061184a57662386f26fc1000083816118405761183f612501565b5b0492506010810190505b6305f5e1008310611873576305f5e100838161186957611868612501565b5b0492506008810190505b612710831061189857612710838161188e5761188d612501565b5b0492506004810190505b606483106118bb57606483816118b1576118b0612501565b5b0492506002810190505b600a83106118ca576001810190505b80915050919050565b6000604051905090565b600080fd5b600080fd5b60007fffffffff0000000000000000000000000000000000000000000000000000000082169050919050565b61191c816118e7565b811461192757600080fd5b50565b60008135905061193981611913565b92915050565b600060208284031215611955576119546118dd565b5b60006119638482850161192a565b91505092915050565b60008115159050919050565b6119818161196c565b82525050565b600060208201905061199c6000830184611978565b92915050565b600081519050919050565b600082825260208201905092915050565b60005b838110156119dc5780820151818401526020810190506119c1565b60008484015250505050565b6000601f19601f8301169050919050565b6000611a04826119a2565b611a0e81856119ad565b9350611a1e8185602086016119be565b611a27816119e8565b840191505092915050565b60006020820190508181036000830152611a4c81846119f9565b905092915050565b6000819050919050565b611a6781611a54565b8114611a7257600080fd5b50565b600081359050611a8481611a5e565b92915050565b600060208284031215611aa057611a9f6118dd565b5b6000611aae84828501611a75565b91505092915050565b600073ffffffffffffffffffffffffffffffffffffffff82169050919050565b6000611ae282611ab7565b9050919050565b611af281611ad7565b82525050565b6000602082019050611b0d6000830184611ae9565b92915050565b611b1c81611ad7565b8114611b2757600080fd5b50565b600081359050611b3981611b13565b92915050565b60008060408385031215611b5657611b556118dd565b5b6000611b6485828601611b2a565b9250506020611b7585828601611a75565b9150509250929050565b600080600060608486031215611b9857611b976118dd565b5b6000611ba686828701611b2a565b9350506020611bb786828701611b2a565b9250506040611bc886828701611a75565b9150509250925092565b600060208284031215611be857611be76118dd565b5b6000611bf684828501611b2a565b91505092915050565b611c0881611a54565b82525050565b6000602082019050611c236000830184611bff565b92915050565b611c328161196c565b8114611c3d57600080fd5b50565b600081359050611c4f81611c29565b92915050565b60008060408385031215611c6c57611c6b6118dd565b5b6000611c7a85828601611b2a565b9250506020611c8b85828601611c40565b9150509250929050565b600080fd5b600080fd5b7f4e487b7100000000000000000000000000000000000000000000000000000000600052604160045260246000fd5b611cd7826119e8565b810181811067ffffffffffffffff82111715611cf657611cf5611c9f565b5b80604052505050565b6000611d096118d3565b9050611d158282611cce565b919050565b600067ffffffffffffffff821115611d3557611d34611c9f565b5b611d3e826119e8565b9050602081019050919050565b82818337600083830152505050565b6000611d6d611d6884611d1a565b611cff565b905082815260208101848484011115611d8957611d88611c9a565b5b611d94848285611d4b565b509392505050565b600082601f830112611db157611db0611c95565b5b8135611dc1848260208601611d5a565b91505092915050565b60008060008060808587031215611de457611de36118dd565b5b6000611df287828801611b2a565b9450506020611e0387828801611b2a565b9350506040611e1487828801611a75565b925050606085013567ffffffffffffffff811115611e3557611e346118e2565b5b611e4187828801611d9c565b91505092959194509250565b600067ffffffffffffffff821115611e6857611e67611c9f565b5b611e71826119e8565b9050602081019050919050565b6000611e91611e8c84611e4d565b611cff565b905082815260208101848484011115611ead57611eac611c9a565b5b611eb8848285611d4b565b509392505050565b600082601f830112611ed557611ed4611c95565b5b8135611ee5848260208601611e7e565b91505092915050565b600060208284031215611f0457611f036118dd565b5b600082013567ffffffffffffffff811115611f2257611f216118e2565b5b611f2e84828501611ec0565b91505092915050565b60008060408385031215611f4e57611f4d6118dd565b5b6000611f5c85828601611b2a565b9250506020611f6d85828601611b2a565b9150509250929050565b7f4e487b7100000000000000000000000000000000000000000000000000000000600052602260045260246000fd5b60006002820490506001821680611fbe57607f821691505b602082108103611fd157611fd0611f77565b5b50919050565b6000606082019050611fec6000830186611ae9565b611ff96020830185611bff565b6120066040830184611ae9565b949350505050565b7f43616e6e6f742072656d6f7665206d61726b6574706c61636520617070726f7660008201527f616c000000000000000000000000000000000000000000000000000000000000602082015250565b600061206a6022836119ad565b91506120758261200e565b604082019050919050565b600060208201905081810360008301526120998161205d565b9050919050565b600081905092915050565b60006120b6826119a2565b6120c081856120a0565b93506120d08185602086016119be565b80840191505092915050565b60006120e882856120ab565b91506120f482846120ab565b91508190509392505050565b7f4e487b7100000000000000000000000000000000000000000000000000000000600052601160045260246000fd5b600061213a82611a54565b91507fffffffffffffffffffffffffffffffffffffffffffffffffffffffffffffffff820361216c5761216b612100565b5b600182019050919050565b600081519050919050565b600082825260208201905092915050565b600061219e82612177565b6121a88185612182565b93506121b88185602086016119be565b6121c1816119e8565b840191505092915050565b60006080820190506121e16000830187611ae9565b6121ee6020830186611ae9565b6121fb6040830185611bff565b818103606083015261220d8184612193565b905095945050505050565b60008151905061222781611913565b92915050565b600060208284031215612243576122426118dd565b5b600061225184828501612218565b91505092915050565b60008190508160005260206000209050919050565b60006020601f8301049050919050565b600082821b905092915050565b6000600883026122bc7fffffffffffffffffffffffffffffffffffffffffffffffffffffffffffffffff8261227f565b6122c6868361227f565b95508019841693508086168417925050509392505050565b6000819050919050565b60006123036122fe6122f984611a54565b6122de565b611a54565b9050919050565b6000819050919050565b61231d836122e8565b6123316123298261230a565b84845461228c565b825550505050565b600090565b612346612339565b612351818484612314565b505050565b5b818110156123755761236a60008261233e565b600181019050612357565b5050565b601f8211156123ba5761238b8161225a565b6123948461226f565b810160208510156123a3578190505b6123b76123af8561226f565b830182612356565b50505b505050565b600082821c905092915050565b60006123dd600019846008026123bf565b1980831691505092915050565b60006123f683836123cc565b9150826002028217905092915050565b61240f826119a2565b67ffffffffffffffff81111561242857612427611c9f565b5b6124328254611fa6565b61243d828285612379565b600060209050601f831160018114612470576000841561245e578287015190505b61246885826123ea565b8655506124d0565b601f19841661247e8661225a565b60005b828110156124a657848901518255600182019150602085019450602081019050612481565b868310156124c357848901516124bf601f8916826123cc565b8355505b6001600288020188555050505b505050505050565b60006040820190506124ed6000830185611ae9565b6124fa6020830184611bff565b9392505050565b7f4e487b7100000000000000000000000000000000000000000000000000000000600052601260045260246000fdfea2646970667358221220547b0539e3dfaca2d233675ff0f99fef3ede62dd6cfb9468af87190b81bc667f64736f6c634300081c0033",
  "linkReferences": {},
  "deployedLinkReferences": {}
}